:100000000C9424010C94AF040C9441010C94410114
:100010000C9441010C9441010C9441010C94410158
:100020000C9441010C9441010C9441010C94410148
:100030000C9441010C9441010C9441010C94410138
:100040000C9441010C9441010C946A050C944101FB
:100050000C9441010C9443010C9441010C94410116
:100060000C9441010C944101000000000000005F6D
:1000700000000007000700147F147F14242A7F2A41
:10008000122313086462364955225000050300000C
:10009000001C2241000041221C0014083E081408E4
:1000A000083E0808005030000008080808080060F2
:1000B00060000020100804023E5149453E00427F86
:1000C000400042615149462141454B311814127F8D
:1000D0001027454545393C4A494930017109050316
:1000E0003649494936064949291E0036360000007E
:1000F0005636000008142241001414141414004150
:100100002214080201510906324979413E7E11113B
:10011000117E7F494949363E414141227F4141227A
:100120001C7F494949417F090909013E4149497AF2
:100130007F0808087F00417F41002040413F017F48
:10014000081422417F404040407F020C027F7F0420
:1001500008107F3E4141413E7F090909063E415159
:10016000215E7F09192946464949493101017F012C
:10017000013F4040403F1F2040201F3F4038403F4C
:100180006314081463070870080761514945430068
:100190007F41410002040810200041417F00040219
:1001A0000102044040404040000102040020545439
:1001B00054787F48444438384444442038444448C0
:1001C0007F3854545418087E0901020C5252523E92
:1001D0007F0804047800447D40002040443D007FB7
:1001E0001028440000417F40007C041804787C08FB
:1001F00004047838444444387C1414140808141453
:10020000187C7C080404084854545420043F44409B
:10021000203C4040207C1C2040201C3C4030403C86
:1002200044281028440C5050503C4464544C440022
:100230000836410000007F00000041360800100829
:10024000081008000000000011241FBECFEFD8E006
:10025000DEBFCDBF11E0A0E0B1E0ECEDF1E202C005
:1002600005900D92AE3EB107D9F723E0AEEEB1E0B6
:1002700001C01D92A53FB207E1F70E94A1010C94B5
:10028000EC100C9400001F920F9200905F000F92F0
:1002900011248F939F93EF93FF93CF93DF93CDB769
:1002A000DEB788E790E0FC01808191819093EF01B7
:1002B0008093EE010000DF91CF91FF91EF919F912C
:1002C0008F910F9000925F000F901F901895CF9321
:1002D000DF9300D0CDB7DEB79A83898385EC90E0B9
:1002E00029813A81232F3327FC01208384EC90E07D
:1002F0002981FC01208381EC90E028E9FC01208326
:1003000082EC90E02EE0FC01208300000F900F9023
:10031000DF91CF910895CF93DF931F92CDB7DEB7D2
:100320008983000080EC90E020E2FC01208386ECD1
:1003300090E02981FC01208300000F90DF91CF9194
:100340000895CF93DF93CDB7DEB7AC970FB6F8948F
:10035000DEBF0FBECDBF8AE290E021E4FC01208326
:1003600087E290E021E6FC0120838BE290E024E02C
:10037000FC01208388E290E0FC01108289E690E095
:1003800022E0FC0120838DE390E021E0FC0120834A
:1003900084E490E023EAFC01208385E490E025E0FA
:1003A000FC01208387E490E0FC0110828CE790E060
:1003B00020E4FC0120838AE790E02FEEFC012083FB
:1003C0008BE790E0FC0110828EE790E02EE3FC01C9
:1003D0002083789487E690E00E9467018091000175
:1003E00090910101019751F40E94C40B0E94440DA9
:1003F0000E94AD0E10920101109200018091EE0159
:100400009091EF01CC01A0E0B0E0BC01CD010E94D1
:100410007C0FDC01CB0120E030EC4FE754E4BC0161
:10042000CD010E94D40EDC01CB0120E030E040EA97
:1004300050E4BC01CD010E943310DC01CB012AE065
:1004400037ED43E25CE3BC01CD010E94D40EDC0138
:10045000CB018093F1039093F203A093F303B09345
:10046000F4038091F1039091F203A091F303B09112
:10047000F40320E030E040EA52E4BC01CD010E94E8
:100480002E1088230CF4C3C08091F1039091F203E5
:10049000A091F303B091F403BC01CD010E94460F7B
:1004A000DC01CB019A83898389819A81092E000C12
:1004B000AA0BBB0BBC01CD010E947E0FDC01CB015E
:1004C000AC01BD0184E190E00E94C11084E190E0A4
:1004D0000E94BB10DC01CB01BC01CD010E94460F84
:1004E000DC01CB019A8389830E94440D89819A8122
:1004F0006CEE73E00E945B0461E08CEE93E00E947E
:10050000770E61E082E091E00E94770E6AE080E081
:100510000E949A0E61E085E091E00E94770E64E10E
:1005200080E00E949A0E0E94AD0E80E090E8ABE35E
:10053000B5E48B879C87AD87BE8720E030E04AE733
:1005400055E46B857C858D859E850E943310DC018A
:10055000CB018F87988BA98BBA8B20E030E040E8E5
:100560005FE36F85788989899A890E94CF0E8823F5
:100570002CF481E090E09C8B8B8B3FC020E03FEF20
:100580004FE757E46F85788989899A890E942E10F0
:1005900018164CF520E030E040E251E46B857C8594
:1005A0008D859E850E943310DC01CB01BC01CD01FD
:1005B0000E944D0FDC01CB019C8B8B8B0FC080E91F
:1005C00091E09E8B8D8B8D899E890197F1F79E8B93
:1005D0008D8B8B899C8901979C8B8B8B8B899C89BC
:1005E000892B69F714C06F85788989899A890E9457
:1005F0004D0FDC01CB019C8B8B8B8B899C89988F59
:100600008F8B8F89988D0197F1F7988F8F8B0E9430
:10061000440D8091F1039091F203A091F303B09106
:10062000F403BC01CD010E944D0FDC01CB016CEE47
:1006300073E00E945B0461E08EE191E00E94770E1E
:100640006AE080E00E949A0E61E08DE291E00E94F3
:10065000770E64E180E00E949A0E61E08CE391E005
:100660000E94770E6EE180E00E949A0E61E08CEEAF
:1006700093E00E94770E61E082E091E00E94770EA5
:100680006EE180E00E949A0E0E94AD0E80E090E044
:10069000AAE7B4E48B839C83AD83BE8320E030E083
:1006A0004AE755E46B817C818D819E810E943310E5
:1006B000DC01CB01898F9A8FAB8FBC8F20E030E0BB
:1006C00040E85FE3698D7A8D8B8D9C8D0E94CF0E03
:1006D00088232CF481E090E09E8F8D8F3FC020E036
:1006E0003FEF4FE757E4698D7A8D8B8D9C8D0E948B
:1006F0002E1018164CF520E030E040E251E46B81FA
:100700007C818D819E810E943310DC01CB01BC0174
:10071000CD010E944D0FDC01CB019E8F8D8F0FC04C
:1007200080E991E098A38F8F8F8D98A10197F1F7C1
:1007300098A38F8F8D8D9E8D01979E8F8D8F8D8D20
:100740009E8D892B69F714C0698D7A8D8B8D9C8D58
:100750000E944D0FDC01CB019E8F8D8F8D8D9E8D64
:100760009AA389A389A19AA10197F1F79AA389A3D2
:100770008091F1039091F203A091F303B091F403FF
:1007800020E030E048E452E4BC01CD010E94CF0EED
:1007900018162CF088E290E0FC0110821FCE88E24F
:1007A00090E020E2FC01208368E280E00E949A0E43
:1007B00061E08AE491E00E94770E68E280E00E94A6
:1007C0009A0E61E089E591E00E94770E0E94AD0EDD
:1007D00080E090E4ACE9B5E48F839887A987BA8775
:1007E00020E030E04AE755E46F81788589859A8575
:1007F0000E943310DC01CB018BA39CA3ADA3BEA34D
:1008000020E030E040E85FE36BA17CA18DA19EA1D8
:100810000E94CF0E88232CF481E090E098A78FA34C
:100820003FC020E03FEF4FE757E46BA17CA18DA1D3
:100830009EA10E942E1018164CF520E030E040E2F8
:1008400051E46F81788589859A850E943310DC0197
:10085000CB01BC01CD010E944D0FDC01CB0198A75B
:100860008FA30FC080E991E09AA789A789A59AA5CF
:100870000197F1F79AA789A78FA198A5019798A743
:100880008FA38FA198A5892B69F714C06BA17CA1B8
:100890008DA19EA10E944D0FDC01CB0198A78FA3D3
:1008A0008FA198A59CA78BA78BA59CA50197F1F775
:1008B0009CA78BA793CDCF93DF9300D000D000D01F
:1008C000CDB7DEB79C838B837E836D8383E08A8381
:1008D0008A81898337C08981082E000C990B2D816C
:1008E0003E81F901E80FF91F4B815C819A01ADEC63
:1008F000BCEC0E94AC109695879596958795969539
:100900008795880F991F9C01220F331F220F331FD9
:10091000820F931F9A01281B390BC901805D8083C8
:100920008B819C819C01ADECBCEC0E94AC10969537
:10093000879596958795969587959C838B838981D6
:10094000815089838981882334F6000026960FB66A
:10095000F894DEBF0FBECDBFDF91CF9108951F92F7
:100960000F9200905F000F9211242F933F934F93AB
:100970005F936F937F938F939F93AF93BF93EF9307
:10098000FF93CF93DF93CDB7DEB72E97DEBFCDBFFA
:100990000E94C40B0E94440D61E086E691E00E9433
:1009A000770E6AE080E00E949A0E0E94AD0E80E011
:1009B00090E0AAEFB4E489839A83AB83BC8320E000
:1009C00030E04AE755E469817A818B819C810E94FD
:1009D0003310DC01CB018D839E83AF83B88720E089
:1009E00030E040E85FE36D817E818F8198850E94D1
:1009F000CF0E88232CF481E090E09A8789873FC04E
:100A000020E03FEF4FE757E46D817E818F8198852D
:100A10000E942E1018164CF520E030E040E251E420
:100A200069817A818B819C810E943310DC01CB012A
:100A3000BC01CD010E944D0FDC01CB019A87898753
:100A40000FC080E991E09C878B878B859C850197FF
:100A5000F1F79C878B8789859A8501979A87898783
:100A600089859A85892B69F714C06D817E818F8174
:100A700098850E944D0FDC01CB019A878987898573
:100A80009A859E878D878D859E850197F1F79E8734
:100A90008D8781E090E09093010180930001000038
:100AA0002E960FB6F894DEBF0FBECDBFDF91CF916B
:100AB000FF91EF91BF91AF919F918F917F916F9136
:100AC0005F914F913F912F910F9000925F000F9097
:100AD0001F9018951F920F9200905F000F921124A3
:100AE0000F931F932F933F934F935F936F937F9336
:100AF0008F939F93AF93BF93EF93FF93CF93DF9326
:100B0000CDB7DEB7C356D109DEBFCDBF86EC90E0CE
:100B1000FC018081898389818C3609F099C08BE240
:100B200090E02BE230E0F90120812160FC0120837C
:100B30000E94C40B0E94440D61E085E791E00E9491
:100B4000770E6AE080E00E949A0E61E080E891E012
:100B50000E94770E64E180E00E949A0E0E94AD0E22
:100B600080E090E0AAEFB4E48A8F9B8FAC8FBD8FBA
:100B700020E030E04AE755E46A8D7B8D8C8D9D8DB9
:100B80000E943310DC01CB018E8F9F8FA8A3B9A3E5
:100B900020E030E040E85FE36E8D7F8D88A199A171
:100BA0000E94CF0E88232CF481E090E09BA38AA3BF
:100BB0003FC020E03FEF4FE757E46E8D7F8D88A167
:100BC00099A10E942E1018164CF520E030E040E26A
:100BD00051E46A8D7B8D8C8D9D8D0E943310DC01DC
:100BE000CB01BC01CD010E944D0FDC01CB019BA3C9
:100BF0008AA30FC080E991E09DA38CA38CA19DA145
:100C00000197F1F79DA38CA38AA19BA101979BA3B8
:100C10008AA38AA19BA1892B69F714C06E8D7F8D51
:100C200088A199A10E944D0FDC01CB019BA38AA34F
:100C30008AA19BA19FA38EA38EA19FA10197F1F7EB
:100C40009FA38EA381E090E0909301018093000127
:100C50008981843609F099C08BE290E02BE230E084
:100C6000F90120812E7FFC0120830E94C40B0E9489
:100C7000440D61E085E791E00E94770E6AE080E034
:100C80000E949A0E61E087E891E00E94770E64E18D
:100C900080E00E949A0E0E94AD0E80E090E0AAEFE4
:100CA000B4E48A839B83AC83BD8320E030E04AE7D1
:100CB00055E46A817B818C819D810E943310DC0127
:100CC000CB0188A799A7AAA7BBA720E030E040E8FE
:100CD0005FE368A579A58AA59BA50E94CF0E88230E
:100CE0002CF481E090E09DA78CA73FC020E03FEF6F
:100CF0004FE757E468A579A58AA59BA50E942E1009
:100D000018164CF520E030E040E251E46A817B8126
:100D10008C819D810E943310DC01CB01BC01CD018F
:100D20000E944D0FDC01CB019DA78CA70FC080E96D
:100D300091E09FA78EA78EA59FA50197F1F79FA78A
:100D40008EA78CA59DA501979DA78CA78CA59DA579
:100D5000892B69F714C068A579A58AA59BA50E946F
:100D60004D0FDC01CB019DA78CA78CA59DA599AB50
:100D700088AB88A999A90197F1F799AB88AB81E075
:100D800090E090930101809300018981803309F004
:100D9000A1C01092F1011092F00187E490E020913F
:100DA000F0013091F101322F2CE3329F202D1124DC
:100DB000FC0120830E94C40B0E94440D61E081E984
:100DC00091E00E94770E6AE080E00E949A0E61E056
:100DD00081EA91E00E94770E6AE080E00E949A0E1C
:100DE0000E94AD0E80E090E0AAEFB4E48E839F8372
:100DF000A887B98720E030E04AE755E46E817F811B
:100E0000888599850E943310DC01CB018AAB9BABAE
:100E1000ACABBDAB20E030E040E85FE36AA97BA962
:100E20008CA99DA90E94CF0E88232CF481E090E02C
:100E30009FAB8EAB3FC020E03FEF4FE757E46AA97E
:100E40007BA98CA99DA90E942E1018164CF520E0B4
:100E500030E040E251E46E817F81888599850E946F
:100E60003310DC01CB01BC01CD010E944D0FDC0130
:100E7000CB019FAB8EAB0FC080E991E099AF88AFFB
:100E800088AD99AD0197F1F799AF88AF8EA99FA969
:100E900001979FAB8EAB8EA99FA9892B69F714C0D0
:100EA0006AA97BA98CA99DA90E944D0FDC01CB01E9
:100EB0009FAB8EAB8EA99FA99BAF8AAF8AAD9BAD2E
:100EC0000197F1F79BAF8AAF81E090E09093010129
:100ED000809300018981813309F0D9C081E090E0DD
:100EE0009093F1018093F00187E490E02091F0016C
:100EF0003091F101322F2CE3329F202D1124FC017F
:100F000020830E94C40B0E94440D61E08CEA91E0B2
:100F10000E94770E6AE080E00E949A0E61E089EB01
:100F200091E00E94770E6AE080E00E949A0E0E9493
:100F3000AD0E80E090E0AAEFB4E48A879B87AC878F
:100F4000BD8720E030E04AE755E46A857B858C85E3
:100F50009D850E943310DC01CB018CAF9DAFAEAFFD
:100F6000BFAF20E030E040E85FE36CAD7DAD8EAD1B
:100F70009FAD0E94CF0E88234CF4CE01805C9F4F22
:100F800021E030E0FC013183208361C020E03FEFAD
:100F90004FE757E46CAD7DAD8EAD9FAD0E942E1036
:100FA00018160CF046C020E030E040E251E46A85BB
:100FB0007B858C859D850E943310DC01CB018E01E1
:100FC000005C1F4FBC01CD010E944D0FDC01CB0125
:100FD000F8019183808324C0CE018E5B9F4F20E96E
:100FE00031E0FC0131832083CE018E5B9F4FFC01F9
:100FF000808191810197F1F79E012E5B3F4FF901AE
:1010000091838083CE01805C9F4F9E01205C3F4F87
:10101000F9012081318121503109FC013183208384
:10102000CE01805C9F4FFC0180819181892BA1F6CC
:1010300028C08E01005C1F4F6CAD7DAD8EAD9FADA5
:101040000E944D0FDC01CB01F80191838083CE011A
:101050008C5B9F4F9E01205C3F4FF90120813181C5
:10106000FC0131832083CE018C5B9F4FFC0180818A
:1010700091810197F1F79E012C5B3F4FF90191831C
:10108000808381E090E09093010180930001898149
:10109000823309F0E9C082E090E09093F1018093FF
:1010A000F00187E490E02091F0013091F101322FBE
:1010B0002CE3329F202D1124FC0120830E94C40BBD
:1010C0000E94440D61E08CEA91E00E94770E6AE094
:1010D00080E00E949A0E61E085EC91E00E94770E1C
:1010E0006AE080E00E949A0E0E94AD0E80E090E0DF
:1010F000AAEFB4E48E879F87A88BB98B8E010A5B19
:101100001F4F20E030E04AE755E46E857F858889EF
:1011100099890E943310DC01CB01F801808391830F
:10112000A283B383CE018A5B9F4F20E030E040E88A
:101130005FE3FC0160817181828193810E94CF0E07
:1011400088234CF4CE01865B9F4F21E030E0FC0108
:101150003183208369C0CE018A5B9F4F20E03FEF3F
:101160004FE757E4FC0160817181828193810E9485
:101170002E1018160CF046C020E030E040E251E49A
:101180006E857F85888999890E943310DC01CB01A7
:101190008E01065B1F4FBC01CD010E944D0FDC018B
:1011A000CB01F8019183808324C0CE01845B9F4FE3
:1011B00020E931E0FC0131832083CE01845B9F4F25
:1011C000FC01808191810197F1F79E01245B3F4FE3
:1011D000F90191838083CE01865B9F4F9E01265B40
:1011E0003F4FF9012081318121503109FC013183C8
:1011F0002083CE01865B9F4FFC0180819181892BEA
:10120000A1F62CC08E01065B1F4FCE018A5B9F4F5B
:10121000FC0160817181828193810E944D0FDC010C
:10122000CB01F80191838083CE01825B9F4F9E01A9
:10123000265B3F4FF90120813181FC0131832083FE
:10124000CE01825B9F4FFC01808191810197F1F774
:101250009E01225B3F4FF9019183808381E090E002
:1012600090930101809300018981833309F0E9C0E3
:1012700083E090E09093F1018093F00187E490E0A7
:101280002091F0013091F101322F2CE3329F202D7B
:101290001124FC0120830E94C40B0E94440D61E0D4
:1012A0008CEA91E00E94770E6AE080E00E949A0E3C
:1012B00061E082ED91E00E94770E6AE080E00E949A
:1012C0009A0E0E94AD0E80E090E0AAEFB4E48A8B03
:1012D0009B8BAC8BBD8B8E01005B1F4F20E030E001
:1012E0004AE755E46A897B898C899D890E9433107D
:1012F000DC01CB01F80180839183A283B383CE010B
:10130000805B9F4F20E030E040E85FE3FC016081BC
:101310007181828193810E94CF0E88234CF4CE018B
:101320008C5A9F4F21E030E0FC013183208369C05B
:10133000CE01805B9F4F20E03FEF4FE757E4FC0179
:1013400060817181828193810E942E1018160CF0A9
:1013500046C020E030E040E251E46A897B898C8914
:101360009D890E943310DC01CB018E010C5A1F4F66
:10137000BC01CD010E944D0FDC01CB01F80191832E
:10138000808324C0CE018A5A9F4F20E931E0FC01BE
:1013900031832083CE018A5A9F4FFC018081918145
:1013A0000197F1F79E012A5A3F4FF90191838083FB
:1013B000CE018C5A9F4F9E012C5A3F4FF90120813C
:1013C000318121503109FC0131832083CE018C5AB7
:1013D0009F4FFC0180819181892BA1F62CC08E0149
:1013E0000C5A1F4FCE01805B9F4FFC0160817181C1
:1013F000828193810E944D0FDC01CB01F801918322
:101400008083CE01885A9F4F9E012C5A3F4FF9018D
:1014100020813181FC0131832083CE01885A9F4F86
:10142000FC01808191810197F1F79E01285A3F4F7D
:10143000F9019183808381E090E090930101809392
:1014400000018981843309F0E9C084E090E0909341
:10145000F1018093F00187E490E02091F001309158
:10146000F101322F2CE3329F202D1124FC01208327
:101470000E94C40B0E94440D61E08CEA91E00E943E
:10148000770E6AE080E00E949A0E61E08FED91E0B5
:101490000E94770E6AE080E00E949A0E0E94AD0ED4
:1014A00080E090E0AAEFB4E48E8B9F8BA88FB98F79
:1014B0008E01065A1F4F20E030E04AE755E46E895E
:1014C0007F89888D998D0E943310DC01CB01F80152
:1014D00080839183A283B383CE01865A9F4F20E0FD
:1014E00030E040E85FE3FC0160817181828193819B
:1014F0000E94CF0E88234CF4CE01825A9F4F21E0E8
:1015000030E0FC013183208369C0CE01865A9F4FB1
:1015100020E03FEF4FE757E4FC0160817181828159
:1015200093810E942E1018160CF046C020E030E087
:1015300040E251E46E897F89888D998D0E94331035
:10154000DC01CB018E01025A1F4FBC01CD010E946C
:101550004D0FDC01CB01F8019183808324C0CE01C3
:10156000805A9F4F20E931E0FC0131832083CE0176
:10157000805A9F4FFC01808191810197F1F79E0174
:10158000205A3F4FF90191838083CE01825A9F4FA9
:101590009E01225A3F4FF9012081318121503109AA
:1015A000FC0131832083CE01825A9F4FFC01808150
:1015B0009181892BA1F62CC08E01025A1F4FCE01BA
:1015C000865A9F4FFC0160817181828193810E94C4
:1015D0004D0FDC01CB01F80191838083CE018E5940
:1015E0009F4F9E01225A3F4FF90120813181FC011A
:1015F00031832083CE018E599F4FFC0180819181E0
:101600000197F1F79E012E593F4FF9019183808395
:1016100081E090E0909301018093000189810E9414
:101620008B010000CD59DF4F0FB6F894DEBF0FBE1F
:10163000CDBFDF91CF91FF91EF91BF91AF919F917E
:101640008F917F916F915F914F913F912F911F915A
:101650000F910F9000925F000F901F9018951F93AD
:10166000CF93DF9300D0CDB7DEB789836A8385E25D
:1016700090E025E230E0F90120812D7FFC012083FC
:101680008A81882351F085E290E025E230E0F9017B
:1016900020812860FC01208309C085E290E025E2DA
:1016A00030E0F9012081277FFC01208310E03CC05D
:1016B0008981882F90E0212F30E047E050E0BA0187
:1016C000621B730B9B0102C0959587952A95E2F7E3
:1016D00081709927892B51F085E290E025E230E076
:1016E000F90120812061FC01208309C085E290E09E
:1016F00025E230E0F90120812F7EFC01208385E284
:1017000090E025E230E0F90120812062FC01208395
:1017100085E290E025E230E0F90120812F7DFC0197
:101720002083812F11E0180F183010F285E290E02D
:1017300025E230E0F90120812260FC0120830000D5
:101740000F900F90DF91CF911F910895CF93DF936A
:101750001F92CDB7DEB7898360E089810E942F0B8D
:1017600000000F90DF91CF910895CF93DF931F92E8
:10177000CDB7DEB7898361E089810E942F0B00001D
:101780000F90DF91CF9108950F931F93CF93DF9325
:10179000CDB7DEB76C970FB6F894DEBF0FBECDBFE6
:1017A00084E290E024E230E0F90120812260FC0133
:1017B000208384E290E024E230E0F901208124607B
:1017C000FC01208384E290E024E230E0F9012081F2
:1017D0002860FC01208384E290E024E230E0F901FB
:1017E00020812061FC01208384E290E024E230E04B
:1017F000F90120812062FC01208385E290E025E24E
:1018000030E0F90120812460FC01208385E290E032
:1018100025E230E0F90120812260FC01208380E094
:1018200090E0A0E2B1E489839A83AB83BC8320E09B
:1018300030E04AE753E469817A818B819C810E9480
:101840003310DC01CB018B8B9C8BAD8BBE8B20E0EE
:1018500030E040E85FE36B897C898D899E890E9436
:10186000CF0E88232CF481E090E0988F8F8B3FC0BF
:1018700020E03FEF4FE757E46B897C898D899E8993
:101880000E942E1018164CF520E030E040E251E4A2
:1018900069817A818B819C810E943310DC01CB01AC
:1018A000BC01CD010E944D0FDC01CB01988F8F8BC5
:1018B0000FC089E190E09A8F898F898D9A8D019769
:1018C000F1F79A8F898F8F89988D0197988F8F8BD9
:1018D0008F89988D892B69F714C06B897C898D89D4
:1018E0009E890E944D0FDC01CB01988F8F8B8F89D1
:1018F000988D9C8F8B8F8B8D9C8D0197F1F79C8F92
:101900008B8F85E290E025E230E0F90120812B7F8A
:10191000FC01208380E090E0ACE8B2E48D839E83FC
:10192000AF83B88720E030E04AE753E46D817E81E1
:101930008F8198850E943310DC01CB0189879A87BB
:10194000AB87BC8720E030E040E85FE369857A85BB
:101950008B859C850E94CF0E88232CF481E090E03B
:101960009E878D873FC020E03FEF4FE757E46985B2
:101970007A858B859C850E942E1018164CF520E0E8
:1019800030E040E251E46D817E818F8198850E9434
:101990003310DC01CB01BC01CD010E944D0FDC01F5
:1019A000CB019E878D870FC089E190E0988B8F8750
:1019B0008F8598890197F1F7988B8F878D859E8504
:1019C00001979E878D878D859E85892B69F714C029
:1019D00069857A858B859C850E944D0FDC01CB0142
:1019E0009E878D878D859E859A8B898B89899A891B
:1019F0000197F1F79A8B898B85E290E025E230E040
:101A0000F90120812460FC01208385E290E025E239
:101A100030E0F90120812D7FFC01208381E20E94CA
:101A2000A60B83E10E94A60B86E00E94A60B82EC27
:101A30000E94A60B80E20E94A60B89E00E94A60BE2
:101A400080E80E94A60B80E40E94A60B00E010E054
:101A500005C080E00E94B50B0F5F1F4F083FF1E00B
:101A60001F07B8F388E00E94A60B8CE00E94A60B2B
:101A700000006C960FB6F894DEBF0FBECDBFDF91AD
:101A8000CF911F910F9108950F931F93CF93DF93E1
:101A9000CDB7DEB780E80E94A60B80E40E94A60BBB
:101AA0001092EA031092EB0300E010E007C0C801B7
:101AB0008E509E4FFC0110820F5F1F4F083FF1E0D8
:101AC0001F07A8F30000DF91CF911F910F91089598
:101AD000CF93DF9300D000D01F92CDB7DEB78B83BA
:101AE0006C834D838C81869586958695882F90E0B2
:101AF00044E5489F9001499F300D11248B81882F28
:101B000090E0820F931F8E509E4F9A8389838D8120
:101B10008823C9F089819A81FC018081482F8C81BA
:101B2000882F90E09C012770332781E090E002C06D
:101B3000880F991F2A95E2F7842B282F89819A8193
:101B4000FC01208319C089819A81FC018081482F82
:101B50008C81882F90E09C012770332781E090E0F2
:101B600002C0880F991F2A95E2F780958423282FB9
:101B700089819A81FC01208300000F900F900F90C3
:101B80000F900F90DF91CF9108950F931F93CF93F4
:101B9000DF9300D000D01F92CDB7DEB78C836D836A
:101BA00010E065C000E04EC08C81882F90E09C0161
:101BB000205231099D81812F692F0E94A010482F4A
:101BC00050E0C901880F991F880F991F820F931F3A
:101BD000840F951F88599F4F9A83898389819A81A1
:101BE000FC0184918B838B81282F30E09D81802F95
:101BF000692F0E94A010882F90E0A90102C055957E
:101C000047958A95E2F7CA0181709927892B61F07F
:101C10008091EB03982F900F8091EA03810F41E0B0
:101C2000692F0E94680D0BC08091EB03982F900FD5
:101C30008091EA03810F40E0692F0E94680D802F98
:101C400001E0080F402F50E08D81282F30E0C901BE
:101C5000880F991F880F991F880F991F821B930B5C
:101C6000481759070CF4A0CF812F11E0180F412F0E
:101C700050E08D81282F30E0C901880F991F880F0F
:101C8000991F820F931F481759070CF48BCF20918F
:101C9000EA039D81892F880F880F890F820F8F5F3C
:101CA0008093EA038091EA03843570F01092EA038E
:101CB0002091EB039D81892F880F880F880F891B46
:101CC000820F8F5F8093EB038091EB03803320F0D2
:101CD0001092EA031092EB0300000F900F900F9008
:101CE0000F900F90DF91CF911F910F910895CF9397
:101CF000DF9300D01F92CDB7DEB79A8389836B83C1
:101D00000CC089819A819C012F5F3F4F3A832983C0
:101D1000FC0180816B810E94C50D89819A81FC0143
:101D20008081882371F700000F900F900F90DF9152
:101D3000CF910895CF93DF9300D0CDB7DEB78983DD
:101D40006A8389818093EA038A818093EB03000090
:101D50000F900F90DF91CF9108950F931F93CF9322
:101D6000DF93CDB7DEB780E80E94A60B80E40E9427
:101D7000A60B00E010E009C0C8018E509E4FFC0188
:101D800080810E94B50B0F5F1F4F083FF1E01F07D6
:101D900098F30000DF91CF911F910F9108950E9459
:101DA000B90F08F481E008950E94E80E0C94F40F36
:101DB0000E94ED0F58F00E94E60F40F029F45F3FBB
:101DC00029F00C94DD0F51110C9428100C94E30FA2
:101DD0000E94051068F39923B1F3552391F3951BE5
:101DE000550BBB27AA2762177307840738F09F5F3C
:101DF0005F4F220F331F441FAA1FA9F335D00E2EA9
:101E00003AF0E0E832D091505040E695001CCAF715
:101E10002BD0FE2F29D0660F771F881FBB1F2617D8
:101E200037074807AB07B0E809F0BB0B802DBF01AF
:101E3000FF2793585F4F3AF09E3F510578F00C947E
:101E4000DD0F0C9428105F3FE4F3983ED4F38695A1
:101E500077956795B795F7959F5FC9F7880F911D9F
:101E60009695879597F90895E1E0660F771F881F8B
:101E7000BB1F621773078407BA0720F0621B730B3E
:101E8000840BBA0BEE1F88F7E09508950E944D0F62
:101E90006894B1110C94281008950E940D1088F0D8
:101EA0009F5798F0B92F9927B751B0F0E1F0660F1E
:101EB000771F881F991F1AF0BA95C9F714C0B1305F
:101EC00091F00E942710B1E008950C942710672F1D
:101ED000782F8827B85F39F0B93FCCF3869577958E
:101EE0006795B395D9F73EF4909580957095619577
:101EF0007F4F8F4F9F4F0895E89409C097FB3EF4A2
:101F000090958095709561957F4F8F4F9F4F992346
:101F1000A9F0F92F96E9BB279395F69587957795C4
:101F20006795B795F111F8CFFAF4BB0F11F460FF84
:101F30001BC06F5F7F4F8F4F9F4F16C0882311F0DC
:101F400096E911C0772321F09EE8872F762F05C0F0
:101F5000662371F096E8862F70E060E02AF09A958B
:101F6000660F771F881FDAF7880F9695879597F980
:101F70000895990F0008550FAA0BE0E8FEEF16161A
:101F80001706E807F907C0F012161306E407F5076D
:101F900098F0621B730B840B950B39F40A2661F0E1
:101FA000232B242B252B21F408950A2609F4A14084
:101FB000A6958FEF811D811D089597F99F6780E891
:101FC00070E060E008959FEF80EC089500240A948B
:101FD0001616170618060906089500240A94121604
:101FE0001306140605060895092E0394000C11F437
:101FF000882352F0BB0F40F4BF2B11F460FF04C0E4
:102000006F5F7F4F8F4F9F4F089557FD9058440F3C
:10201000551F59F05F3F71F04795880F97FB991F47
:1020200061F09F3F79F08795089512161306140604
:10203000551FF2CF4695F1DF08C016161706180691
:10204000991FF1CF86957105610508940895E8946C
:10205000BB2766277727CB0197F908950E94B90F10
:1020600008F48FEF08950E9446100C94F40F0E941C
:10207000E60F38F00E94ED0F20F0952311F00C943C
:10208000DD0F0C94E30F11240C9428100E9405100E
:1020900070F3959FC1F3950F50E0551F629FF001BB
:1020A000729FBB27F00DB11D639FAA27F00DB11DD4
:1020B000AA1F649F6627B00DA11D661F829F22275D
:1020C000B00DA11D621F739FB00DA11D621F839FE4
:1020D000A00D611D221F749F3327A00D611D231FBA
:1020E000849F600D211D822F762F6A2F11249F5708
:1020F00050409AF0F1F088234AF0EE0FFF1FBB1F0B
:10210000661F771F881F91505040A9F79E3F5105C9
:1021100080F00C94DD0F0C9428105F3FE4F3983EA0
:10212000D4F3869577956795B795F795E7959F5F73
:10213000C1F7FE2B880F911D9695879597F9089505
:10214000991B79E004C0991F961708F0961B881F09
:102150007A95C9F780950895A29FB001B39FC001F9
:10216000A39F700D811D1124911DB29F700D811DC3
:102170001124911D0895A6E1B0E044E050E00C94D4
:10218000D010242F0E94DF10252F0E94DF100C9406
:10219000C9100E94DE10272F0C94DF10DC01CB0148
:1021A000FC01F999FECF06C0F2BDE1BDF89A319667
:1021B00000B40D9241505040B8F70895262FF99978
:1021C000FECF1FBA92BD81BD20BD0FB6F894FA9A1A
:0C21D000F99A0FBE01960895F894FFCF15
:1021DC000100204300566172696176656C20437280
:1021EC0069746963612061726D617A2E20004D6F94
:1021FC006E69746F72616D656E746F20002A2D2D7F
:10220C002D2D2D2D2D2D2D2D2D2D2A0054656D7040
:10221C00657261747572613A2000202020202020A4
:10222C002020202020202020006D6F746F722061F0
:10223C007469766F200053656A612062656D207643
:10224C00696E646F004C616D702E204D61713A00A7
:10225C006C6967616461006465736C696761646172
:10226C00004C616D702E206465736C6967616461EC
:10227C0000506F7263656E743A3025004C616D705E
:10228C003A206C696761646100506F7263656E74AB
:10229C003A32352500506F7263656E743A203530D2
:1022AC002500506F7263656E743A203735250050E7
:0E22BC006F7263656E743A2031303025000079
:00000001FF
