S00F000050726F6A65746F2E7372656332
S11300000C9424010C946E030C9441010C94410152
S11300100C9441010C9441010C9441010C94410154
S11300200C9441010C9441010C9441010C94410144
S11300300C9441010C9441010C9441010C94410134
S11300400C9441010C9441010C9429040C94410139
S11300500C9441010C9443010C9441010C94410112
S11300600C9441010C944101000000000000005F69
S113007000000007000700147F147F14242A7F2A3D
S11300801223130864623649552250000503000008
S1130090001C2241000041221C0014083E081408E0
S11300A0083E0808005030000008080808080060EE
S11300B060000020100804023E5149453E00427F82
S11300C0400042615149462141454B311814127F89
S11300D01027454545393C4A494930017109050312
S11300E03649494936064949291E0036360000007A
S11300F0563600000814224100141414141400414C
S11301002214080201510906324979413E7E111137
S1130110117E7F494949363E414141227F41412276
S11301201C7F494949417F090909013E4149497AEE
S11301307F0808087F00417F41002040413F017F44
S1130140081422417F404040407F020C027F7F041C
S113015008107F3E4141413E7F090909063E415155
S1130160215E7F09192946464949493101017F0128
S1130170013F4040403F1F2040201F3F4038403F48
S11301806314081463070870080761514945430064
S11301907F41410002040810200041417F00040215
S11301A00102044040404040000102040020545435
S11301B054787F48444438384444442038444448BC
S11301C07F3854545418087E0901020C5252523E8E
S11301D07F0804047800447D40002040443D007FB3
S11301E01028440000417F40007C041804787C08F7
S11301F004047838444444387C141414080814144F
S1130200187C7C080404084854545420043F444097
S1130210203C4040207C1C2040201C3C4030403C82
S113022044281028440C5050503C4464544C44001E
S11302300836410000007F00000041360800100825
S1130240081008000000000011241FBECFEFD8E002
S1130250DEBFCDBF11E0A0E0B1E0ECEEFAE102C0F8
S113026005900D92AC3EB107D9F723E0ACEEB1E0B6
S113027001C01D92A33FB207E1F70E94A1010C94B3
S1130280740D0C9400001F920F9200905F000F9267
S113029011248F939F93EF93FF93CF93DF93CDB765
S11302A0DEB788E790E0FC01808191819093ED01B5
S11302B08093EC010000DF91CF91FF91EF919F912A
S11302C08F910F9000925F000F901F901895CF931D
S11302D0DF9300D0CDB7DEB79A83898385EC90E0B5
S11302E029813A81232F3327FC01208384EC90E079
S11302F02981FC01208381EC90E028E9FC01208322
S113030082EC90E02EE0FC01208300000F900F901F
S1130310DF91CF910895CF93DF931F92CDB7DEB7CE
S11303208983000080EC90E020E2FC01208386ECCD
S113033090E02981FC01208300000F90DF91CF9190
S11303400895CF93DF93CDB7DEB72E970FB6F89409
S1130350DEBF0FBECDBF8AE290E020E4FC01208323
S113036087E290E021E2FC0120838BE290E024E02C
S1130370FC01208388E290E0FC01108289E690E091
S113038022E0FC0120838DE390E021E0FC01208346
S1130390789484E490E023EAFC01208385E490E0EF
S11303A025E0FC01208387E490E0FC0110828CE7C7
S11303B090E020ECFC0120838AE790E02FEEFC0122
S11303C020838BE790E0FC0110828EE790E02EE31F
S11303D0FC012083789487E690E00E946701809175
S11303E0000190910101019771F50E9484080E9417
S11303F0040A61E082E091E00E94370B6AE080E049
S11304000E945A0B61E083E091E00E94370B64E1A3
S113041080E00E945A0B61E082E191E00E94370B78
S11304206EE180E00E945A0B61E081E291E00E945B
S1130430370B68E280E00E945A0B0E946D0B109209
S11304400101109200018091EC019091ED01CC0129
S1130450A0E0B0E0BC01CD010E94350CDC01CB0171
S113046020E030EC4FE754E4BC01CD010E94940B32
S1130470DC01CB0120E030E048EC52E4BC01CD01CA
S11304800E94EC0CDC01CB018093EF039093F0030A
S1130490A093F103B093F2030E94040A8091EF0346
S11304A09091F003A091F103B091F203BC01CD014E
S11304B00E94060CDC01CB016AEE73E00E941A0371
S11304C061E083E391E00E94370B6AE080E00E94E0
S11304D05A0B61E083E091E00E94370B64E180E015
S11304E00E945A0B61E082E491E00E94370B6EE1B6
S11304F080E00E945A0B61E08AEE93E00E94370B81
S113050061E080E591E00E94370B68E280E00E94A0
S11305105A0B0E946D0B80E090E0AAE7B4E4898353
S11305209A83AB83BC8320E030E04AE755E46981D9
S11305307A818B819C810E94EC0CDC01CB018D8340
S11305409E83AF83B88720E030E040E85FE36D81AD
S11305507E818F8198850E948F0B88232CF481E003
S113056090E09A8789873FC020E03FEF4FE757E448
S11305706D817E818F8198850E94E70C18164CF559
S113058020E030E040E251E469817A818B819C81F2
S11305900E94EC0CDC01CB01BC01CD010E94060CD5
S11305A0DC01CB019A8789870FC080E991E09C87A1
S11305B08B878B859C850197F1F79C878B87898531
S11305C09A8501979A87898789859A85892B69F7FE
S11305D014C06D817E818F8198850E94060CDC0198
S11305E0CB019A87898789859A859E878D878D8592
S11305F09E850197F1F79E878D878091EF039091F7
S1130600F003A091F103B091F20320E030E04CE854
S113061052E4BC01CD010E948F0B18162CF088E225
S113062090E0FC011082DBCE88E290E020E2FC0145
S11306302083D5CECF93DF9300D000D000D0CDB7A8
S1130640DEB79C838B837E836D8383E08A838A8178
S1130650898337C08981082E000C990B2D813E8136
S1130660F901E80FF91F4B815C819A01ADECBCECF8
S11306700E94650D9695879596958795969587958D
S1130680880F991F9C01220F331F220F331F820FE3
S1130690931F9A01281B390BC901805D80838B81CC
S11306A09C819C01ADECBCEC0E94650D96958795F0
S11306B096958795969587959C838B8389818150A0
S11306C089838981882334F6000026960FB6F8942E
S11306D0DEBF0FBECDBFDF91CF9108951F920F9261
S11306E000905F000F9211242F933F934F935F93D9
S11306F06F937F938F939F93AF93BF93EF93FF93E6
S1130700CF93DF93CDB7DEB72E97DEBFCDBF0E9468
S113071084080E94040A61E08AE591E00E94370B94
S113072064E180E00E945A0B0E946D0B80E090E02F
S1130730AAEFB4E489839A83AB83BC8320E030E0DE
S11307404AE755E469817A818B819C810E94EC0C93
S1130750DC01CB018D839E83AF83B88720E030E03A
S113076040E85FE36D817E818F8198850E948F0BC5
S113077088232CF481E090E09A8789873FC020E0A9
S11307803FEF4FE757E46D817E818F8198850E940A
S1130790E70C18164CF520E030E040E251E46981A2
S11307A07A818B819C810E94EC0CDC01CB01BC0121
S11307B0CD010E94060CDC01CB019A8789870FC00A
S11307C080E991E09C878B878B859C850197F1F765
S11307D09C878B8789859A8501979A8789878985DC
S11307E09A85892B69F714C06D817E818F819885E4
S11307F00E94060CDC01CB019A87898789859A853A
S11308009E878D878D859E850197F1F79E878D87BD
S113081081E090E0909301018093000100002E9606
S11308200FB6F894DEBF0FBECDBFDF91CF91FF911D
S1130830EF91BF91AF919F918F917F916F915F9154
S11308404F913F912F910F9000925F000F901F9056
S113085018951F920F9200905F000F9211240F932E
S11308601F932F933F934F935F936F937F938F9334
S11308709F93AF93BF93EF93FF93CF93DF93CDB742
S1130880DEB7C754D109DEBFCDBF86EC90E0FC01D2
S1130890808189838981803309F0A1C01092EF019E
S11308A01092EE0187E490E02091EE013091EF0187
S11308B0322F2CE3329F202D1124FC0120830E942F
S11308C084080E94040A61E089E691E00E94370BE3
S11308D06AE080E00E945A0B61E083E891E00E94A4
S11308E0370B6AE080E00E945A0B0E946D0B80E097
S11308F090E0AAEFB4E48A8B9B8BAC8BBD8B20E099
S113090030E04AE755E46A897B898C899D890E9495
S1130910EC0CDC01CB018E8B9F8BA88FB98F20E070
S113092030E040E85FE36E897F89888D998D0E946D
S11309308F0B88232CF481E090E09B8F8A8F3FC03B
S113094020E03FEF4FE757E46E897F89888D998DCA
S11309500E94E70C18164CF520E030E040E251E428
S11309606A897B898C899D890E94EC0CDC01CB010E
S1130970BC01CD010E94060CDC01CB019B8F8A8F48
S11309800FC080E991E09D8F8C8F8C8D9D8D019798
S1130990F1F79D8F8C8F8A8D9B8D01979B8F8A8F0A
S11309A08A8D9B8D892B69F714C06E897F89888D08
S11309B0998D0E94060CDC01CB019B8F8A8F8A8D56
S11309C09B8D9F8F8E8F8E8D9F8D0197F1F79F8FBB
S11309D08E8F81E090E090930101809300018981E2
S11309E0813309F0A3C081E090E09093EF018093FC
S11309F0EE0187E490E02091EE013091EF01322F77
S1130A002CE3329F202D1124FC0120830E948408B2
S1130A100E94040A61E082E991E00E94370B6AE0D7
S1130A2080E00E945A0B61E08AEA91E00E94370B51
S1130A306AE080E00E945A0B0E946D0B80E090E017
S1130A40AAEFB4E48A839B83AC83BD8320E030E0C7
S1130A504AE755E46A817B818C819D810E94EC0C7C
S1130A60DC01CB0188A399A3AAA3BBA320E030E0B7
S1130A7040E85FE368A179A18AA19BA10E948F0B42
S1130A8088232CF481E090E09DA38CA33FC020E058
S1130A903FEF4FE757E468A179A18AA19BA10E9487
S1130AA0E70C18164CF520E030E040E251E46A818E
S1130AB07B818C819D810E94EC0CDC01CB01BC010B
S1130AC0CD010E94060CDC01CB019DA38CA30FC0B9
S1130AD080E991E09FA38EA38EA19FA10197F1F7D6
S1130AE09FA38EA38CA19DA101979DA38CA38CA1F0
S1130AF09DA1892B69F714C068A179A18AA19BA142
S1130B000E94060CDC01CB019DA38CA38CA19DA1AA
S1130B1099A788A788A599A50197F1F799A788A708
S1130B2081E090E0909301018093000189818233F8
S1130B3009F0A3C082E090E09093EF018093EE016E
S1130B4087E490E02091EE013091EF01322F2CE305
S1130B50329F202D1124FC0120830E9484080E94CE
S1130B60040A61E082E991E00E94370B6AE080E0C8
S1130B700E945A0B61E08AEB91E00E94370B6AE015
S1130B8080E00E945A0B0E946D0B80E090E0AAEF77
S1130B90B4E48E839F83A887B98720E030E04AE7D6
S1130BA055E46E817F81888599850E94EC0CDC0177
S1130BB0CB018AA79BA7ACA7BDA720E030E040E803
S1130BC05FE36AA57BA58CA59DA50E948F0B882356
S1130BD02CF481E090E09FA78EA73FC020E03FEF78
S1130BE04FE757E46AA57BA58CA59DA50E94E70C59
S1130BF018164CF520E030E040E251E46E817F812C
S1130C00888599850E94EC0CDC01CB01BC01CD01E7
S1130C100E94060CDC01CB019FA78EA70FC080E9C0
S1130C2091E099AB88AB88A999A90197F1F799ABA1
S1130C3088AB8EA59FA501979FA78EA78EA59FA57C
S1130C40892B69F714C06AA57BA58CA59DA50E9474
S1130C50060CDC01CB019FA78EA78EA59FA59BAB9D
S1130C608AAB8AA99BA90197F1F79BAB8AAB81E078
S1130C7090E090930101809300018981833309F00E
S1130C80A3C083E090E09093EF018093EE0187E4AA
S1130C9090E02091EE013091EF01322F2CE3329F4E
S1130CA0202D1124FC0120830E9484080E94040A40
S1130CB061E082E991E00E94370B6AE080E00E94E3
S1130CC05A0B61E08AEC91E00E94370B6AE080E005
S1130CD00E945A0B0E946D0B80E090E0AAEFB4E4EE
S1130CE08A879B87AC87BD8720E030E04AE755E4DC
S1130CF06A857B858C859D850E94EC0CDC01CB018B
S1130D008CAB9DABAEABBFAB20E030E040E85FE323
S1130D106CA97DA98EA99FA90E948F0B88232CF40E
S1130D2081E090E099AF88AF3FC020E03FEF4FE70C
S1130D3057E46CA97DA98EA99FA90E94E70C1816F7
S1130D404CF520E030E040E251E46A857B858C85F7
S1130D509D850E94EC0CDC01CB01BC01CD010E94FD
S1130D60060CDC01CB0199AF88AF0FC080E991E09C
S1130D709BAF8AAF8AAD9BAD0197F1F79BAF8AAF6A
S1130D8088AD99AD019799AF88AF88AD99AD892B9E
S1130D9069F714C06CA97DA98EA99FA90E94060CAD
S1130DA0DC01CB0199AF88AF88AD99AD9DAF8CAF15
S1130DB08CAD9DAD0197F1F79DAF8CAF81E090E0D4
S1130DC090930101809300018981843309F0E6C086
S1130DD084E090E09093EF018093EE0187E490E04B
S1130DE02091EE013091EF01322F2CE3329F202D20
S1130DF01124FC0120830E9484080E94040A61E0FB
S1130E0082E991E00E94370B6AE080E00E945A0B6D
S1130E1061E08AED91E00E94370B6AE080E00E9475
S1130E205A0B0E946D0B80E090E0AAEFB4E48E8729
S1130E309F87A88BB98B8E01025C1F4F20E030E0A6
S1130E404AE755E46E857F85888999890E94EC0C70
S1130E50DC01CB01F80180839183A283B383CE01AB
S1130E60CE9620E030E040E85FE3FC0160817181D0
S1130E70828193810E948F0B88234CF4CE018E5B78
S1130E809F4F21E030E0FC013183208367C0CE0115
S1130E90CE9620E03FEF4FE757E4FC01608171817B
S1130EA0828193810E94E70C18160CF046C020E062
S1130EB030E040E251E46E857F85888999890E94FB
S1130EC0EC0CDC01CB018E010E5B1F4FBC01CD018C
S1130ED00E94060CDC01CB01F8019183808324C0BD
S1130EE0CE018C5B9F4F20E931E0FC0131832083EC
S1130EF0CE018C5B9F4FFC01808191810197F1F7BA
S1130F009E012C5B3F4FF90191838083CE018E5B60
S1130F109F4F9E012E5B3F4FF9012081318121506B
S1130F203109FC0131832083CE018E5B9F4FFC018C
S1130F3080819181892BA1F62BC08E010E5B1F4FFE
S1130F40CE01CE96FC0160817181828193810E94E1
S1130F50060CDC01CB01F80191838083CE018A5B0E
S1130F609F4F9E012E5B3F4FF90120813181FC018F
S1130F7031832083CE018A5B9F4FFC018081918164
S1130F800197F1F79E012A5B3F4FF901918380831A
S1130F9081E090E0909301018093000189810E9497
S1130FA08B010000C95BDF4F0FB6F894DEBF0FBEA4
S1130FB0CDBFDF91CF91FF91EF91BF91AF919F9101
S1130FC08F917F916F915F914F913F912F911F91DD
S1130FD00F910F9000925F000F901F9018951F9330
S1130FE0CF93DF9300D0CDB7DEB789836A8385E2E0
S1130FF090E025E230E0F90120812D7FFC0120837F
S11310008A81882351F085E290E025E230E0F901FD
S113101020812860FC01208309C085E290E025E25C
S113102030E0F9012081277FFC01208310E03CC0DF
S11310308981882F90E0212F30E047E050E0BA0109
S1131040621B730B9B0102C0959587952A95E2F765
S113105081709927892B51F085E290E025E230E0F8
S1131060F90120812061FC01208309C085E290E020
S113107025E230E0F90120812F7EFC01208385E206
S113108090E025E230E0F90120812062FC01208318
S113109085E290E025E230E0F90120812F7DFC011A
S11310A02083812F11E0180F183010F285E290E0B0
S11310B025E230E0F90120812260FC012083000058
S11310C00F900F90DF91CF911F910895CF93DF93ED
S11310D01F92CDB7DEB7898360E089810E94EF0754
S11310E000000F90DF91CF910895CF93DF931F926B
S11310F0CDB7DEB7898361E089810E94EF070000E4
S11311000F90DF91CF9108950F931F93CF93DF93A7
S1131110CDB7DEB76C970FB6F894DEBF0FBECDBF68
S113112084E290E024E230E0F90120812260FC01B5
S1131130208384E290E024E230E0F90120812460FD
S1131140FC01208384E290E024E230E0F901208174
S11311502860FC01208384E290E024E230E0F9017D
S113116020812061FC01208384E290E024E230E0CD
S1131170F90120812062FC01208385E290E025E2D0
S113118030E0F90120812460FC01208385E290E0B5
S113119025E230E0F90120812260FC01208380E017
S11311A090E0A0E2B1E489839A83AB83BC8320E01E
S11311B030E04AE753E469817A818B819C810E9403
S11311C0EC0CDC01CB018B8B9C8BAD8BBE8B20E0BC
S11311D030E040E85FE36B897C898D899E890E94B9
S11311E08F0B88232CF481E090E0988F8F8B3FC085
S11311F020E03FEF4FE757E46B897C898D899E8916
S11312000E94E70C18164CF520E030E040E251E46F
S113121069817A818B819C810E94EC0CDC01CB0179
S1131220BC01CD010E94060CDC01CB01988F8F8B91
S11312300FC089E190E09A8F898F898D9A8D0197EB
S1131240F1F79A8F898F8F89988D0197988F8F8B5B
S11312508F89988D892B69F714C06B897C898D8956
S11312609E890E94060CDC01CB01988F8F8B8F899D
S1131270988D9C8F8B8F8B8D9C8D0197F1F79C8F14
S11312808B8F85E290E025E230E0F90120812B7F0D
S1131290FC01208380E090E0ACE8B2E48D839E837F
S11312A0AF83B88720E030E04AE753E46D817E8164
S11312B08F8198850E94EC0CDC01CB0189879A8789
S11312C0AB87BC8720E030E040E85FE369857A853E
S11312D08B859C850E948F0B88232CF481E090E001
S11312E09E878D873FC020E03FEF4FE757E4698535
S11312F07A858B859C850E94E70C18164CF520E0B6
S113130030E040E251E46D817E818F8198850E94B6
S1131310EC0CDC01CB01BC01CD010E94060CDC010C
S1131320CB019E878D870FC089E190E0988B8F87D2
S11313308F8598890197F1F7988B8F878D859E8586
S113134001979E878D878D859E85892B69F714C0AB
S113135069857A858B859C850E94060CDC01CB010E
S11313609E878D878D859E859A8B898B89899A899D
S11313700197F1F79A8B898B85E290E025E230E0C2
S1131380F90120812460FC01208385E290E025E2BC
S113139030E0F90120812D7FFC01208381E20E944D
S11313A0660883E10E94660886E00E94660882EC73
S11313B00E94660880E20E94660889E00E9466082E
S11313C080E80E94660880E40E94660800E010E05D
S11313D005C080E00E9475080F5F1F4F083FF1E0D1
S11313E01F07B8F388E00E9466088CE00E94660834
S11313F000006C960FB6F894DEBF0FBECDBFDF9130
S1131400CF911F910F9108950F931F93CF93DF9363
S1131410CDB7DEB780E80E94660880E40E946608C3
S11314201092E8031092E90300E010E007C0C8013D
S113143080519E4FFC0110820F5F1F4F083FF1E067
S11314401F07A8F30000DF91CF911F910F9108951A
S1131450CF93DF9300D000D01F92CDB7DEB78B833C
S11314606C834D838C81869586958695882F90E034
S113147044E5489F9001499F300D11248B81882FAA
S113148090E0820F931F80519E4F9A8389838D81B0
S11314908823C9F089819A81FC018081482F8C813D
S11314A0882F90E09C012770332781E090E002C0F0
S11314B0880F991F2A95E2F7842B282F89819A8116
S11314C0FC01208319C089819A81FC018081482F05
S11314D08C81882F90E09C012770332781E090E075
S11314E002C0880F991F2A95E2F780958423282F3C
S11314F089819A81FC01208300000F900F900F9046
S11315000F900F90DF91CF9108950F931F93CF9376
S1131510DF9300D000D01F92CDB7DEB78C836D83EC
S113152010E065C000E04EC08C81882F90E09C01E3
S1131530205231099D81812F692F0E94590D482F16
S113154050E0C901880F991F880F991F820F931FBC
S1131550840F951F88599F4F9A83898389819A8123
S1131560FC0184918B838B81282F30E09D81802F17
S1131570692F0E94590D882F90E0A90102C055954A
S113158047958A95E2F7CA0181709927892B61F002
S11315908091E903982F900F8091E803810F41E037
S11315A0692F0E94280A0BC08091E903982F900F9D
S11315B08091E803810F40E0692F0E94280A802F60
S11315C001E0080F402F50E08D81282F30E0C90141
S11315D0880F991F880F991F880F991F821B930BDF
S11315E0481759070CF4A0CF812F11E0180F412F91
S11315F050E08D81282F30E0C901880F991F880F92
S1131600991F820F931F481759070CF48BCF209111
S1131610E8039D81892F880F880F890F820F8F5FC0
S11316208093E8038091E803843570F01092E80316
S11316302091E9039D81892F880F880F880F891BCA
S1131640820F8F5F8093E9038091E903803320F058
S11316501092E8031092E90300000F900F900F908E
S11316600F900F90DF91CF911F910F910895CF9319
S1131670DF9300D01F92CDB7DEB79A8389836B8343
S11316800CC089819A819C012F5F3F4F3A83298343
S1131690FC0180816B810E94850A89819A81FC0109
S11316A08081882371F700000F900F900F90DF91D5
S11316B0CF910895CF93DF9300D0CDB7DEB7898360
S11316C06A8389818093E8038A818093E903000017
S11316D00F900F90DF91CF9108950F931F93CF93A5
S11316E0DF93CDB7DEB780E80E94660880E40E94ED
S11316F0660800E010E009C0C80180519E4FFC015B
S113170080810E9475080F5F1F4F083FF1E01F079B
S113171098F30000DF91CF911F910F9108950E94DB
S1131720720C08F481E008950E94A80B0C94AD0C8F
S11317300E94A60C58F00E949F0C40F029F45F3FD1
S113174029F00C94960C51110C94E10C0C949C0C03
S11317500E94BE0C68F39923B1F3552391F3951BB2
S1131760550BBB27AA2762177307840738F09F5FBE
S11317705F4F220F331F441FAA1FA9F335D00E2E2B
S11317803AF0E0E832D091505040E695001CCAF798
S11317902BD0FE2F29D0660F771F881FBB1F26175B
S11317A037074807AB07B0E809F0BB0B802DBF0132
S11317B0FF2793585F4F3AF09E3F510578F00C9401
S11317C0960C0C94E10C5F3FE4F3983ED4F38695B9
S11317D077956795B795F7959F5FC9F7880F911D22
S11317E09695879597F90895E1E0660F771F881F0E
S11317F0BB1F621773078407BA0720F0621B730BC1
S1131800840BBA0BEE1F88F7E09508950E94C60C6E
S113181088F09F5798F0B92F9927B751B0F0E1F0AD
S1131820660F771F881F991F1AF0BA95C9F714C05D
S1131830B13091F00E94E00CB1E008950C94E00CFA
S1131840672F782F8827B85F39F0B93FCCF3869596
S113185077956795B395D9F73EF4909580957095F3
S113186061957F4F8F4F9F4F0895E89409C097FB70
S11318703EF490958095709561957F4F8F4F9F4F63
S11318809923A9F0F92F96E9BB279395F6958795A7
S113189077956795B795F111F8CFFAF4BB0F11F46A
S11318A060FF1BC06F5F7F4F8F4F9F4F16C0882311
S11318B011F096E911C0772321F09EE8872F762F47
S11318C005C0662371F096E8862F70E060E02AF088
S11318D09A95660F771F881FDAF7880F9695879574
S11318E097F90895990F0008550FAA0BE0E8FEEF49
S11318F016161706E807F907C0F012161306E407D0
S1131900F50798F0621B730B840B950B39F40A26C8
S113191061F0232B242B252B21F408950A2609F4A6
S1131920A140A6958FEF811D811D089597F99F67AA
S113193080E870E060E008959FEF80EC0895002453
S11319400A941616170618060906089500240A9420
S113195012161306140605060895092E0394000CA6
S113196011F4882352F0BB0F40F4BF2B11F460FF35
S113197004C06F5F7F4F8F4F9F4F089557FD90585E
S1131980440F551F59F05F3F71F04795880F97FB3F
S1131990991F61F09F3F79F08795089512161306F9
S11319A01406551FF2CF4695F1DF08C01616170628
S11319B01806991FF1CF869571056105089408955D
S11319C0E894BB2766277727CB0197F908950E94EF
S11319D0720C08F48FEF08950E94FF0C0C94AD0C68
S11319E00E949F0C38F00E94A60C20F0952311F061
S11319F00C94960C0C949C0C11240C94E10C0E94F5
S1131A00BE0C70F3959FC1F3950F50E0551F629F74
S1131A10F001729FBB27F00DB11D639FAA27F00D43
S1131A20B11DAA1F649F6627B00DA11D661F829F6A
S1131A302227B00DA11D621F739FB00DA11D621F4F
S1131A40839FA00D611D221F749F3327A00D611D6C
S1131A50231F849F600D211D822F762F6A2F11244E
S1131A609F5750409AF0F1F088234AF0EE0FFF1F81
S1131A70BB1F661F771F881F91505040A9F79E3FD8
S1131A80510580F00C94960C0C94E10C5F3FE4F348
S1131A90983ED4F3869577956795B795F795E7952E
S1131AA09F5FC1F7FE2B880F911D9695879597F937
S1131AB00895991B79E004C0991F961708F0961BA6
S1131AC0881F7A95C9F780950895A29FB001B39FA6
S1131AD0C001A39F700D811D1124911DB29F700D33
S10F1AE0811D1124911D0895F894FFCF7E
S1131AEC0100002A2D2D2D2D2D2D2D2D2D2D2D2D9F
S1131AFC2A002D4C2E204573637269746F72696FC2
S1131B0C002D53616C61206465206D617175696E83
S1131B1C6173004D6F6E69746F72616D656E746F75
S1131B2C200054656D70657261747572613A2000A1
S1131B3C2043656C73697573200053656A61206278
S1131B4C656D2076696E646F004C616D702E457303
S1131B5C637269746F72696F3A6465736C696761F7
S1131B6C646100506F7263656E746167656D3A30C1
S1131B7C25004C616D702E204573637269746F720D
S1131B8C696F3A6C696761646100506F7263656E6A
S1131B9C746167656D3A32352500506F7263656EFA
S1131BAC746167656D3A35302500506F7263656EEC
S1131BBC746167656D3A37352500506F7263656ED5
S10F1BCC746167656D3A3130302500000B
S9030000FC
